{
  "_format": "hh-sol-artifact-1",
  "contractName": "RWADiscoveryCard",
  "sourceName": "contracts/RWADiscoveryCard.sol",
  "abi": [
    {
      "inputs": [
        {
          "internalType": "string",
          "name": "baseURI",
          "type": "string"
        }
      ],
      "stateMutability": "nonpayable",
      "type": "constructor"
    },
    {
      "anonymous": false,
      "inputs": [
        {
          "indexed": true,
          "internalType": "address",
          "name": "owner",
          "type": "address"
        },
        {
          "indexed": true,
          "internalType": "address",
          "name": "approved",
          "type": "address"
        },
        {
          "indexed": true,
          "internalType": "uint256",
          "name": "tokenId",
          "type": "uint256"
        }
      ],
      "name": "Approval",
      "type": "event"
    },
    {
      "anonymous": false,
      "inputs": [
        {
          "indexed": true,
          "internalType": "address",
          "name": "owner",
          "type": "address"
        },
        {
          "indexed": true,
          "internalType": "address",
          "name": "operator",
          "type": "address"
        },
        {
          "indexed": false,
          "internalType": "bool",
          "name": "approved",
          "type": "bool"
        }
      ],
      "name": "ApprovalForAll",
      "type": "event"
    },
    {
      "anonymous": false,
      "inputs": [
        {
          "indexed": true,
          "internalType": "uint256",
          "name": "tokenId",
          "type": "uint256"
        },
        {
          "indexed": true,
          "internalType": "address",
          "name": "discoverer",
          "type": "address"
        },
        {
          "indexed": false,
          "internalType": "enum RWADiscoveryCard.AssetType",
          "name": "assetType",
          "type": "uint8"
        },
        {
          "indexed": false,
          "internalType": "enum RWADiscoveryCard.RarityTier",
          "name": "rarity",
          "type": "uint8"
        },
        {
          "indexed": false,
          "internalType": "string",
          "name": "assetAddress",
          "type": "string"
        }
      ],
      "name": "AssetDiscovered",
      "type": "event"
    },
    {
      "anonymous": false,
      "inputs": [
        {
          "indexed": false,
          "internalType": "uint256",
          "name": "_fromTokenId",
          "type": "uint256"
        },
        {
          "indexed": false,
          "internalType": "uint256",
          "name": "_toTokenId",
          "type": "uint256"
        }
      ],
      "name": "BatchMetadataUpdate",
      "type": "event"
    },
    {
      "anonymous": false,
      "inputs": [
        {
          "indexed": false,
          "internalType": "uint256",
          "name": "_tokenId",
          "type": "uint256"
        }
      ],
      "name": "MetadataUpdate",
      "type": "event"
    },
    {
      "anonymous": false,
      "inputs": [
        {
          "indexed": true,
          "internalType": "address",
          "name": "previousOwner",
          "type": "address"
        },
        {
          "indexed": true,
          "internalType": "address",
          "name": "newOwner",
          "type": "address"
        }
      ],
      "name": "OwnershipTransferred",
      "type": "event"
    },
    {
      "anonymous": false,
      "inputs": [
        {
          "indexed": true,
          "internalType": "uint256",
          "name": "tokenId",
          "type": "uint256"
        },
        {
          "indexed": false,
          "internalType": "enum RWADiscoveryCard.RarityTier",
          "name": "newRarity",
          "type": "uint8"
        }
      ],
      "name": "RarityUpdated",
      "type": "event"
    },
    {
      "anonymous": false,
      "inputs": [
        {
          "indexed": true,
          "internalType": "address",
          "name": "from",
          "type": "address"
        },
        {
          "indexed": true,
          "internalType": "address",
          "name": "to",
          "type": "address"
        },
        {
          "indexed": true,
          "internalType": "uint256",
          "name": "tokenId",
          "type": "uint256"
        }
      ],
      "name": "Transfer",
      "type": "event"
    },
    {
      "inputs": [
        {
          "internalType": "address",
          "name": "to",
          "type": "address"
        },
        {
          "internalType": "uint256",
          "name": "tokenId",
          "type": "uint256"
        }
      ],
      "name": "approve",
      "outputs": [],
      "stateMutability": "nonpayable",
      "type": "function"
    },
    {
      "inputs": [
        {
          "internalType": "string",
          "name": "",
          "type": "string"
        }
      ],
      "name": "assetDiscovered",
      "outputs": [
        {
          "internalType": "bool",
          "name": "",
          "type": "bool"
        }
      ],
      "stateMutability": "view",
      "type": "function"
    },
    {
      "inputs": [
        {
          "internalType": "address",
          "name": "owner",
          "type": "address"
        }
      ],
      "name": "balanceOf",
      "outputs": [
        {
          "internalType": "uint256",
          "name": "",
          "type": "uint256"
        }
      ],
      "stateMutability": "view",
      "type": "function"
    },
    {
      "inputs": [
        {
          "internalType": "address",
          "name": "_to",
          "type": "address"
        },
        {
          "internalType": "enum RWADiscoveryCard.AssetType",
          "name": "_assetType",
          "type": "uint8"
        },
        {
          "internalType": "enum RWADiscoveryCard.RarityTier",
          "name": "_rarity",
          "type": "uint8"
        },
        {
          "internalType": "enum RWADiscoveryCard.RiskTier",
          "name": "_risk",
          "type": "uint8"
        },
        {
          "internalType": "uint256",
          "name": "_rarityScore",
          "type": "uint256"
        },
        {
          "internalType": "uint256",
          "name": "_predictionScore",
          "type": "uint256"
        },
        {
          "internalType": "string",
          "name": "_assetAddress",
          "type": "string"
        },
        {
          "internalType": "string",
          "name": "_assetName",
          "type": "string"
        },
        {
          "internalType": "string",
          "name": "_assetSymbol",
          "type": "string"
        },
        {
          "internalType": "uint256",
          "name": "_currentValue",
          "type": "uint256"
        },
        {
          "internalType": "uint256",
          "name": "_yieldRate",
          "type": "uint256"
        },
        {
          "internalType": "string",
          "name": "_tokenURI",
          "type": "string"
        }
      ],
      "name": "discoverAsset",
      "outputs": [
        {
          "internalType": "uint256",
          "name": "",
          "type": "uint256"
        }
      ],
      "stateMutability": "nonpayable",
      "type": "function"
    },
    {
      "inputs": [
        {
          "internalType": "uint256",
          "name": "",
          "type": "uint256"
        }
      ],
      "name": "discoveryCards",
      "outputs": [
        {
          "internalType": "uint256",
          "name": "tokenId",
          "type": "uint256"
        },
        {
          "internalType": "address",
          "name": "discoverer",
          "type": "address"
        },
        {
          "internalType": "uint256",
          "name": "discoveryTimestamp",
          "type": "uint256"
        },
        {
          "internalType": "enum RWADiscoveryCard.AssetType",
          "name": "assetType",
          "type": "uint8"
        },
        {
          "internalType": "enum RWADiscoveryCard.RarityTier",
          "name": "rarity",
          "type": "uint8"
        },
        {
          "internalType": "enum RWADiscoveryCard.RiskTier",
          "name": "risk",
          "type": "uint8"
        },
        {
          "internalType": "uint256",
          "name": "rarityScore",
          "type": "uint256"
        },
        {
          "internalType": "uint256",
          "name": "predictionScore",
          "type": "uint256"
        },
        {
          "internalType": "string",
          "name": "assetAddress",
          "type": "string"
        },
        {
          "internalType": "string",
          "name": "assetName",
          "type": "string"
        },
        {
          "internalType": "string",
          "name": "assetSymbol",
          "type": "string"
        },
        {
          "internalType": "uint256",
          "name": "currentValue",
          "type": "uint256"
        },
        {
          "internalType": "uint256",
          "name": "yieldRate",
          "type": "uint256"
        }
      ],
      "stateMutability": "view",
      "type": "function"
    },
    {
      "inputs": [
        {
          "internalType": "uint256",
          "name": "tokenId",
          "type": "uint256"
        }
      ],
      "name": "getApproved",
      "outputs": [
        {
          "internalType": "address",
          "name": "",
          "type": "address"
        }
      ],
      "stateMutability": "view",
      "type": "function"
    },
    {
      "inputs": [
        {
          "internalType": "address",
          "name": "_discoverer",
          "type": "address"
        }
      ],
      "name": "getDiscovererCards",
      "outputs": [
        {
          "internalType": "uint256[]",
          "name": "",
          "type": "uint256[]"
        }
      ],
      "stateMutability": "view",
      "type": "function"
    },
    {
      "inputs": [
        {
          "internalType": "uint256",
          "name": "_tokenId",
          "type": "uint256"
        }
      ],
      "name": "getDiscoveryCard",
      "outputs": [
        {
          "components": [
            {
              "internalType": "uint256",
              "name": "tokenId",
              "type": "uint256"
            },
            {
              "internalType": "address",
              "name": "discoverer",
              "type": "address"
            },
            {
              "internalType": "uint256",
              "name": "discoveryTimestamp",
              "type": "uint256"
            },
            {
              "internalType": "enum RWADiscoveryCard.AssetType",
              "name": "assetType",
              "type": "uint8"
            },
            {
              "internalType": "enum RWADiscoveryCard.RarityTier",
              "name": "rarity",
              "type": "uint8"
            },
            {
              "internalType": "enum RWADiscoveryCard.RiskTier",
              "name": "risk",
              "type": "uint8"
            },
            {
              "internalType": "uint256",
              "name": "rarityScore",
              "type": "uint256"
            },
            {
              "internalType": "uint256",
              "name": "predictionScore",
              "type": "uint256"
            },
            {
              "internalType": "string",
              "name": "assetAddress",
              "type": "string"
            },
            {
              "internalType": "string",
              "name": "assetName",
              "type": "string"
            },
            {
              "internalType": "string",
              "name": "assetSymbol",
              "type": "string"
            },
            {
              "internalType": "uint256",
              "name": "currentValue",
              "type": "uint256"
            },
            {
              "internalType": "uint256",
              "name": "yieldRate",
              "type": "uint256"
            }
          ],
          "internalType": "struct RWADiscoveryCard.DiscoveryCard",
          "name": "",
          "type": "tuple"
        }
      ],
      "stateMutability": "view",
      "type": "function"
    },
    {
      "inputs": [
        {
          "internalType": "address",
          "name": "owner",
          "type": "address"
        },
        {
          "internalType": "address",
          "name": "operator",
          "type": "address"
        }
      ],
      "name": "isApprovedForAll",
      "outputs": [
        {
          "internalType": "bool",
          "name": "",
          "type": "bool"
        }
      ],
      "stateMutability": "view",
      "type": "function"
    },
    {
      "inputs": [
        {
          "internalType": "string",
          "name": "_assetAddress",
          "type": "string"
        }
      ],
      "name": "isAssetDiscovered",
      "outputs": [
        {
          "internalType": "bool",
          "name": "",
          "type": "bool"
        }
      ],
      "stateMutability": "view",
      "type": "function"
    },
    {
      "inputs": [],
      "name": "name",
      "outputs": [
        {
          "internalType": "string",
          "name": "",
          "type": "string"
        }
      ],
      "stateMutability": "view",
      "type": "function"
    },
    {
      "inputs": [],
      "name": "owner",
      "outputs": [
        {
          "internalType": "address",
          "name": "",
          "type": "address"
        }
      ],
      "stateMutability": "view",
      "type": "function"
    },
    {
      "inputs": [
        {
          "internalType": "uint256",
          "name": "tokenId",
          "type": "uint256"
        }
      ],
      "name": "ownerOf",
      "outputs": [
        {
          "internalType": "address",
          "name": "",
          "type": "address"
        }
      ],
      "stateMutability": "view",
      "type": "function"
    },
    {
      "inputs": [],
      "name": "renounceOwnership",
      "outputs": [],
      "stateMutability": "nonpayable",
      "type": "function"
    },
    {
      "inputs": [
        {
          "internalType": "address",
          "name": "from",
          "type": "address"
        },
        {
          "internalType": "address",
          "name": "to",
          "type": "address"
        },
        {
          "internalType": "uint256",
          "name": "tokenId",
          "type": "uint256"
        }
      ],
      "name": "safeTransferFrom",
      "outputs": [],
      "stateMutability": "nonpayable",
      "type": "function"
    },
    {
      "inputs": [
        {
          "internalType": "address",
          "name": "from",
          "type": "address"
        },
        {
          "internalType": "address",
          "name": "to",
          "type": "address"
        },
        {
          "internalType": "uint256",
          "name": "tokenId",
          "type": "uint256"
        },
        {
          "internalType": "bytes",
          "name": "data",
          "type": "bytes"
        }
      ],
      "name": "safeTransferFrom",
      "outputs": [],
      "stateMutability": "nonpayable",
      "type": "function"
    },
    {
      "inputs": [
        {
          "internalType": "address",
          "name": "operator",
          "type": "address"
        },
        {
          "internalType": "bool",
          "name": "approved",
          "type": "bool"
        }
      ],
      "name": "setApprovalForAll",
      "outputs": [],
      "stateMutability": "nonpayable",
      "type": "function"
    },
    {
      "inputs": [
        {
          "internalType": "string",
          "name": "baseURI",
          "type": "string"
        }
      ],
      "name": "setBaseURI",
      "outputs": [],
      "stateMutability": "nonpayable",
      "type": "function"
    },
    {
      "inputs": [
        {
          "internalType": "bytes4",
          "name": "interfaceId",
          "type": "bytes4"
        }
      ],
      "name": "supportsInterface",
      "outputs": [
        {
          "internalType": "bool",
          "name": "",
          "type": "bool"
        }
      ],
      "stateMutability": "view",
      "type": "function"
    },
    {
      "inputs": [],
      "name": "symbol",
      "outputs": [
        {
          "internalType": "string",
          "name": "",
          "type": "string"
        }
      ],
      "stateMutability": "view",
      "type": "function"
    },
    {
      "inputs": [
        {
          "internalType": "uint256",
          "name": "tokenId",
          "type": "uint256"
        }
      ],
      "name": "tokenURI",
      "outputs": [
        {
          "internalType": "string",
          "name": "",
          "type": "string"
        }
      ],
      "stateMutability": "view",
      "type": "function"
    },
    {
      "inputs": [],
      "name": "totalDiscoveries",
      "outputs": [
        {
          "internalType": "uint256",
          "name": "",
          "type": "uint256"
        }
      ],
      "stateMutability": "view",
      "type": "function"
    },
    {
      "inputs": [
        {
          "internalType": "address",
          "name": "from",
          "type": "address"
        },
        {
          "internalType": "address",
          "name": "to",
          "type": "address"
        },
        {
          "internalType": "uint256",
          "name": "tokenId",
          "type": "uint256"
        }
      ],
      "name": "transferFrom",
      "outputs": [],
      "stateMutability": "nonpayable",
      "type": "function"
    },
    {
      "inputs": [
        {
          "internalType": "address",
          "name": "newOwner",
          "type": "address"
        }
      ],
      "name": "transferOwnership",
      "outputs": [],
      "stateMutability": "nonpayable",
      "type": "function"
    },
    {
      "inputs": [
        {
          "internalType": "uint256",
          "name": "_tokenId",
          "type": "uint256"
        },
        {
          "internalType": "enum RWADiscoveryCard.RarityTier",
          "name": "_newRarity",
          "type": "uint8"
        },
        {
          "internalType": "uint256",
          "name": "_newRarityScore",
          "type": "uint256"
        }
      ],
      "name": "updateRarity",
      "outputs": [],
      "stateMutability": "nonpayable",
      "type": "function"
    }
  ],
  "bytecode": "0x608060405234620004d65762002dd7803803806200001d81620004fb565b92833981019060208082840312620004d65781516001600160401b0392838211620004d6570192601f90808286011215620004d65784518481116200030857601f19956200007182850188168601620004fb565b92828452858383010111620004d657849060005b838110620004c157505060009183010152620000a0620004db565b92601a84527f417373657444657874657220446973636f76657279204361726400000000000081850152620000d4620004db565b60078152660a4ae825a888ab60cb1b82820152845186811162000308576000546001968782811c92168015620004b6575b85831014620002e757818784931162000460575b508490878311600114620003fb57600092620003ef575b5050600019600383901b1c191690861b176000555b80519086821162000308578554908682811c92168015620003e4575b84831014620002e75781868493116200038e575b5083908683116001146200032a576000926200031e575b5050600019600383901b1c191690851b1784555b620001ab3362000521565b81519485116200030857600b548481811c91168015620002fd575b82821014620002e7578381116200029b575b50809285116001146200023057508394509083929160009462000224575b50501b916000199060031b1c191617600b555b620002143362000521565b60405161286c90816200056b8239f35b015192503880620001f6565b929484908116600b60005284600020946000905b8883831062000280575050501062000266575b505050811b01600b5562000209565b015160001960f88460031b161c1916905538808062000257565b85870151885590960195948501948793509081019062000244565b600b600052816000208480880160051c820192848910620002dd575b0160051c019085905b828110620002d0575050620001d8565b60008155018590620002c0565b92508192620002b7565b634e487b7160e01b600052602260045260246000fd5b90607f1690620001c6565b634e487b7160e01b600052604160045260246000fd5b0151905038806200018c565b90898894169184600052856000209260005b878282106200037757505084116200035d575b505050811b018455620001a0565b015160001960f88460031b161c191690553880806200034f565b8385015186558b979095019493840193016200033c565b90915086600052836000208680850160051c820192868610620003da575b918991869594930160051c01915b828110620003ca57505062000175565b60008155859450899101620003ba565b92508192620003ac565b91607f169162000161565b01519050388062000130565b908a8994169160008052866000209260005b888282106200044957505084116200042f575b505050811b0160005562000145565b015160001960f88460031b161c1916905538808062000420565b8385015186558c979095019493840193016200040d565b90915060008052846000208780850160051c820192878610620004ac575b918a91869594930160051c01915b8281106200049c57505062000119565b600081558594508a91016200048c565b925081926200047e565b91607f169162000105565b81810183015185820184015286920162000085565b600080fd5b60408051919082016001600160401b038111838210176200030857604052565b6040519190601f01601f191682016001600160401b038111838210176200030857604052565b600780546001600160a01b039283166001600160a01b0319821681179092559091167f8be0079c531659141344cd1fd0a4f28419497f9722a3daafe3b4186f6b6457e0600080a356fe608080604052600436101561001357600080fd5b60003560e01c90816301ffc9a714611a98575080630333052814611a7a57806306fdde03146119d7578063081812fc146119b9578063095ea7b31461183f5780630a19f3551461180057806323b872dd146117dc57806332560db7146116c15780633634420a146114c757806342842e0e1461149457806350165ab41461143e57806355f804b3146112e05780636352211e146112b057806370a0823114611219578063715018a6146111bc5780638da5cb5b146111935780638fc7297b14610fe257806395d89b4114610f17578063a22cb46514610e45578063b88d4fde14610dc3578063c87b56dd14610d8c578063e23193e21461030a578063e985e9c5146102b4578063f2fde38b146101f05763fa5940f51461013257600080fd5b346101eb5760603660031901126101eb5760043560243560068110156101eb5760207f3128a76fc6feb3f98733a1f86e8f4f8548db9ef7e925eb02f0be3054b48d38d891604435610181611e9e565b6000858152600260205260409020546101a4906001600160a01b03161515612536565b6101b16064821115612400565b84600052600983526101ca8260036040600020016124cb565b84600052600983526004604060002001556101e86040518092611e57565ba2005b600080fd5b346101eb5760203660031901126101eb57610209611b65565b610211611e9e565b6001600160a01b0390811690811561026057600754826001600160601b0360a01b821617600755167f8be0079c531659141344cd1fd0a4f28419497f9722a3daafe3b4186f6b6457e0600080a3005b60405162461bcd60e51b815260206004820152602660248201527f4f776e61626c653a206e6577206f776e657220697320746865207a65726f206160448201526564647265737360d01b6064820152608490fd5b346101eb5760403660031901126101eb576102cd611b65565b6102d5611b7b565b9060018060a01b03809116600052600560205260406000209116600052602052602060ff604060002054166040519015158152f35b346101eb576101803660031901126101eb57610324611b65565b600860243510156101eb57600660443510156101eb57600560643510156101eb5760c4356001600160401b0381116101eb57610364903690600401611e71565b60e4356001600160401b0381116101eb57610383903690600401611e71565b610104939193356001600160401b0381116101eb576103a6903690600401611e71565b6001600160401b0361016435116101eb576103c73661016435600401611e71565b6103d2979197611e9e565b60ff60405188888237600a898201526020818a8101030190205416610d475761040060646084351115612400565b606460a43511610d025760016008540197886008556040519161042283611bad565b600083526001600160a01b038b1615610cbe576104f96104f4610500948c8e61046961046383600052600260205260018060a01b0360406000205416151590565b156124ea565b60008281526002602052604090205461048c906001600160a01b03161515610463565b6001600160a01b0381166000818152600360209081526040808320805460010190558583526002909152812080546001600160a01b031916831790558391907fddf252ad1be2c89b69c2b068fc378daa952ba7f163c4a11628f55a4df523b3ef8180a4612255565b612058565b3691611c04565b6000888152600260205260409020546001600160a01b031615610c62578760005260066020526040600020908051906001600160401b0382116109d3576105478354611cae565b601f8111610c1e575b50602090601f8311600114610baa57918061062a949261063798979694600092610b9f575b50508160011b916000199060031b1c19161790555b7ff8e1a15aba9398e019f0b49df1a4fde98ee17ae345cb5f6b5e2c27f5033e8ce760206040518b8152a16105bc612443565b8981526001600160a01b038b166020820152426040820152956105e4602435606089016124a7565b6105f3604435608089016124b3565b61060260643560a089016124bf565b60843560c088015260a43560e088015261061d368a8a611c04565b6101008801523691611c04565b6101208501523691611c04565b6101408201526101243561016082015261014435610180820152836000526009602052604060002090805182556001820160018060a01b036020830151166001600160601b0360a01b8254161790556040810151600283015560608101516008811015610b895760ff8019600385015416911617600383015560808101516006811015610b89576106cb90600384016124cb565b60a08101516005811015610b895762ff000060038401549160101b169062ff0000191617600383015560c0810151600483015560e081015160058301556101008101518051906001600160401b0382116109d357819061072e6006860154611cae565b601f8111610b36575b50602090601f8311600114610ac457600092610ab9575b50508160011b916000199060031b1c19161760068301555b6101208101518051906001600160401b0382116109d357819061078c6007860154611cae565b601f8111610a66575b50602090601f83116001146109f4576000926109e9575b50508160011b916000199060031b1c19161760078301555b6101408101518051906001600160401b0382116109d3576107e86008850154611cae565b601f811161098c575b509285926020989288958a90601f83116001146108eb5760809593837ff9b55ffcd045a09183942adc94c82989b80a53b172d9772d854446c2a1dcd602999a9694600a94610180946000926108e0575b50508160011b916000199060031b1c19161760088501555b61016081015160098501550151910155604051848382378981868101600a815203019020600160ff1982541617905560405193849261089a84602435611e4a565b6108a88b8501604435611e57565b606060408501528160608501528484013760008288018401526001600160a01b031695601f01601f19168101030190a3604051908152f35b015190508f80610841565b90600885016000528b6000209160005b601f198516811061096f575093600184600a946101809460809a987ff9b55ffcd045a09183942adc94c82989b80a53b172d9772d854446c2a1dcd6029d9e9a98601f19811610610956575b505050811b016008850155610859565b015160001960f88460031b161c191690558f8080610946565b8282015184558c99508b9850600190930192918d01918d016108fb565b600885016000526020600020601f840160051c8101602085106109cc575b601f830160051c820181106109c05750506107f1565b600081556001016109aa565b50806109aa565b634e487b7160e01b600052604160045260246000fd5b0151905088806107ac565b9250600785016000526020600020906000935b601f1984168510610a4b576001945083601f19811610610a32575b505050811b0160078301556107c4565b015160001960f88460031b161c19169055888080610a22565b81810151835560209485019460019093019290910190610a07565b909150600785016000526020600020601f840160051c810160208510610ab2575b90849392915b601f830160051c82018110610aa3575050610795565b60008155859450600101610a8d565b5080610a87565b01519050888061074e565b9250600685016000526020600020906000935b601f1984168510610b1b576001945083601f19811610610b02575b505050811b016006830155610766565b015160001960f88460031b161c19169055888080610af2565b81810151835560209485019460019093019290910190610ad7565b909150600685016000526020600020601f840160051c810160208510610b82575b90849392915b601f830160051c82018110610b73575050610737565b60008155859450600101610b5d565b5080610b57565b634e487b7160e01b600052602160045260246000fd5b015190508d80610575565b908360005260206000209160005b601f1985168110610c0657509261062a94926001926106379998979583601f19811610610bed575b505050811b01905561058a565b015160001960f88460031b161c191690558d8080610be0565b91926020600181928685015181550194019201610bb8565b836000526020600020601f840160051c810160208510610c5b575b601f830160051c82018110610c4f575050610550565b60008155600101610c39565b5080610c39565b60405162461bcd60e51b815260206004820152602e60248201527f45524337323155524953746f726167653a2055524920736574206f66206e6f6e60448201526d32bc34b9ba32b73a103a37b5b2b760911b6064820152608490fd5b606460405162461bcd60e51b815260206004820152602060248201527f4552433732313a206d696e7420746f20746865207a65726f20616464726573736044820152fd5b60405162461bcd60e51b815260206004820152601860248201527f496e76616c69642070726564696374696f6e2073636f726500000000000000006044820152606490fd5b60405162461bcd60e51b815260206004820152601860248201527f417373657420616c726561647920646973636f766572656400000000000000006044820152606490fd5b346101eb5760203660031901126101eb57610dbf610dab6004356125b5565b604051918291602083526020830190611b40565b0390f35b346101eb5760803660031901126101eb57610ddc611b65565b610de4611b7b565b90606435906044356001600160401b0383116101eb57366023840112156101eb57610e4393610e206104f4943690602481600401359101611c04565b92610e33610e2e843361207c565b611fa3565b610e3e838383612144565b612375565b005b346101eb5760403660031901126101eb57610e5e611b65565b602435908115158092036101eb576001600160a01b031690338214610ed257336000526005602052604060002082600052602052604060002060ff1981541660ff83161790556040519081527f17307eab39ab6107e8899845ad3d59bd9653f200f220920489ca2b5937696c3160203392a3005b60405162461bcd60e51b815260206004820152601960248201527f4552433732313a20617070726f766520746f2063616c6c6572000000000000006044820152606490fd5b346101eb5760003660031901126101eb5760405160006001805490610f3b82611cae565b80855291818116908115610fbb5750600114610f62575b610dbf84610dab81860382611bc8565b600081815292507fb10e2d527612073b26eecdfd717e6a320cf44b4afac2b0732d9fcbe2b7fa0cf65b828410610fa3575050508101602001610dab82610f52565b80546020858701810191909152909301928101610f8b565b60ff191660208087019190915292151560051b85019092019250610dab9150839050610f52565b346101eb576020806003193601126101eb57610ffc611b65565b90600854600091600191825b81811115611122575061103361101d8561259e565b9461102b6040519687611bc8565b80865261259e565b8483019590601f1901368737600090845b83811115611088575050505060405192818401908285525180915260408401949160005b8281106110755785870386f35b8351875295810195928101928401611068565b6000818152600260205260409020549597949694956001600160a01b0316151580611105575b6110c7575b6110bc90612579565b969496959395611044565b9184518110156110ef576110e78184896110bc9460051b89010152612579565b9290506110b3565b634e487b7160e01b600052603260045260246000fd5b5061110f81611f42565b6001600160a01b038381169116146110ae565b6000818152600260205260409020549395929492936001600160a01b0316151580611176575b611161575b61115690612579565b949294939193611008565b9161116e61115691612579565b92905061114d565b5061118081611f42565b6001600160a01b03858116911614611148565b346101eb5760003660031901126101eb576007546040516001600160a01b039091168152602090f35b346101eb5760003660031901126101eb576111d5611e9e565b600780546001600160a01b031981169091556000906001600160a01b03167f8be0079c531659141344cd1fd0a4f28419497f9722a3daafe3b4186f6b6457e08280a3005b346101eb5760203660031901126101eb576001600160a01b0361123a611b65565b1680156112595760005260036020526020604060002054604051908152f35b60405162461bcd60e51b815260206004820152602960248201527f4552433732313a2061646472657373207a65726f206973206e6f7420612076616044820152683634b21037bbb732b960b91b6064820152608490fd5b346101eb5760203660031901126101eb5760206112ce600435611f42565b6040516001600160a01b039091168152f35b346101eb576112ee36611c3b565b6112f6611e9e565b80516001600160401b0381116109d357611311600b54611cae565b601f81116113d9575b50602080601f83116001146113585750819260009261134d575b5050600019600383901b1c191660019190911b17600b55005b015190508280611334565b90601f19831693600b6000527f0175b7a638427703f0dbe7bb9bbf987a2551717b34e79f33b5b1008d1fa01db9926000905b8682106113c157505083600195106113a8575b505050811b01600b55005b015160001960f88460031b161c1916905582808061139d565b8060018596829496860151815501950193019061138a565b600b6000527f0175b7a638427703f0dbe7bb9bbf987a2551717b34e79f33b5b1008d1fa01db9601f830160051c81019160208410611434575b601f0160051c01905b818110611428575061131a565b6000815560010161141b565b9091508190611412565b346101eb5760203660031901126101eb576004356001600160401b0381116101eb5760ff602061147381933690600401611e71565b91908260405193849283378101600a81520301902054166040519015158152f35b346101eb57610e436104f46114a836611c79565b90604051926114b684611bad565b60008452610e33610e2e843361207c565b346101eb5760203660031901126101eb576004356114e3612443565b50600081815260026020526040902054611507906001600160a01b03161515612536565b60005260096020526040600020600a6040519161152383611b91565b8054835260018101546001600160a01b0316602084015260028101546040840152600381015461157e9060ff9061155f818316606088016124a7565b611571828260081c16608088016124b3565b60101c1660a085016124bf565b600481015460c0840152600581015460e084015261159e60068201611da6565b6101008401526115b060078201611da6565b6101208401526115c260088201611da6565b610140840152600981015461016084015201546101808201526040518091602082528051602083015260018060a01b0360208201511660408301526040810151606083015261161960608201516080840190611e4a565b61162b608082015160a0840190611e57565b61163d60a082015160c0840190611e64565b60c081015160e083015260e08101516101008301526101008101516101806116ac6116776101a093846101208801526101c0870190611b40565b61169561012086015191601f199283898303016101408a0152611b40565b906101408601519087830301610160880152611b40565b92610160810151828601520151908301520390f35b346101eb5760203660031901126101eb57600435600052600960205260406000208054600160a01b600190036001830154169160028101546003820154600483015460058401546006850161171590611da6565b9061172260078701611da6565b9261172f60088801611da6565b94600988015497600a0154966040519a8b9a8b5260208b015260408a01526060890160ff82169061175f91611e4a565b61177360808a0160ff600884901c16611e57565b60a089019060101c60ff169061178891611e64565b60c088015260e08701526101a08061010088015286016117a791611b40565b8581036101208701526117b991611b40565b8481036101408601526117cb91611b40565b916101608401526101808301520390f35b346101eb57610e436117ed36611c79565b916117fb610e2e843361207c565b612144565b346101eb57602060ff6118298261181636611c3b565b8160405193828580945193849201611b1d565b8101600a81520301902054166040519015158152f35b346101eb5760403660031901126101eb57611858611b65565b602435906001600160a01b03808061186f85611f42565b1692169180831461196a57803314908115611945575b50156118da57600083815260046020526040902080546001600160a01b031916831790556118b283611f42565b167f8c5be1e5ebec7d5bd14f71427d1e84f3dd0314c0f7b2291e5b200ac8c7c3b925600080a4005b60405162461bcd60e51b815260206004820152603d60248201527f4552433732313a20617070726f76652063616c6c6572206973206e6f7420746f60448201527f6b656e206f776e6572206f7220617070726f76656420666f7220616c6c0000006064820152608490fd5b9050600052600560205260406000203360005260205260ff6040600020541684611885565b60405162461bcd60e51b815260206004820152602160248201527f4552433732313a20617070726f76616c20746f2063757272656e74206f776e656044820152603960f91b6064820152608490fd5b346101eb5760203660031901126101eb5760206112ce600435611f65565b346101eb5760003660031901126101eb57604051600080546119f881611cae565b80845290600190818116908115610fbb5750600114611a2157610dbf84610dab81860382611bc8565b600080805292507f290decd9548b62a8d60345a988386fc84ba6bc95484008f6362f93160ef3e5635b828410611a62575050508101602001610dab82610f52565b80546020858701810191909152909301928101611a4a565b346101eb5760003660031901126101eb576020600854604051908152f35b346101eb5760203660031901126101eb576004359063ffffffff60e01b82168092036101eb57602091632483248360e11b8114908115611ada575b5015158152f35b6380ac58cd60e01b811491508115611b0c575b8115611afb575b5083611ad3565b6301ffc9a760e01b14905083611af4565b635b5e139f60e01b81149150611aed565b60005b838110611b305750506000910152565b8181015183820152602001611b20565b90602091611b5981518092818552858086019101611b1d565b601f01601f1916010190565b600435906001600160a01b03821682036101eb57565b602435906001600160a01b03821682036101eb57565b6101a081019081106001600160401b038211176109d357604052565b602081019081106001600160401b038211176109d357604052565b90601f801991011681019081106001600160401b038211176109d357604052565b6001600160401b0381116109d357601f01601f191660200190565b929192611c1082611be9565b91611c1e6040519384611bc8565b8294818452818301116101eb578281602093846000960137010152565b60206003198201126101eb57600435906001600160401b0382116101eb57806023830112156101eb57816024611c7693600401359101611c04565b90565b60609060031901126101eb576001600160a01b039060043582811681036101eb579160243590811681036101eb579060443590565b90600182811c92168015611cde575b6020831014611cc857565b634e487b7160e01b600052602260045260246000fd5b91607f1691611cbd565b60405190600082600b5491611cfc83611cae565b80835292600190818116908115611d845750600114611d25575b50611d2392500383611bc8565b565b600b600090815291507f0175b7a638427703f0dbe7bb9bbf987a2551717b34e79f33b5b1008d1fa01db95b848310611d695750611d23935050810160200138611d16565b81935090816020925483858a01015201910190918592611d50565b905060209250611d2394915060ff191682840152151560051b82010138611d16565b9060405191826000825492611dba84611cae565b908184526001948581169081600014611e275750600114611de4575b5050611d2392500383611bc8565b9093915060005260209081600020936000915b818310611e0f575050611d2393508201013880611dd6565b85548884018501529485019487945091830191611df7565b915050611d2394506020925060ff191682840152151560051b8201013880611dd6565b906008821015610b895752565b906006821015610b895752565b906005821015610b895752565b9181601f840112156101eb578235916001600160401b0383116101eb57602083818601950101116101eb57565b6007546001600160a01b03163303611eb257565b606460405162461bcd60e51b815260206004820152602060248201527f4f776e61626c653a2063616c6c6572206973206e6f7420746865206f776e65726044820152fd5b15611efd57565b60405162461bcd60e51b815260206004820152601860248201527f4552433732313a20696e76616c696420746f6b656e20494400000000000000006044820152606490fd5b6000908152600260205260409020546001600160a01b0316611c76811515611ef6565b600081815260026020526040902054611f88906001600160a01b03161515611ef6565b6000908152600460205260409020546001600160a01b031690565b15611faa57565b60405162461bcd60e51b815260206004820152602d60248201527f4552433732313a2063616c6c6572206973206e6f7420746f6b656e206f776e6560448201526c1c881bdc88185c1c1c9bdd9959609a1b6064820152608490fd5b60809060208152603260208201527f4552433732313a207472616e7366657220746f206e6f6e20455243373231526560408201527131b2b4bb32b91034b6b83632b6b2b73a32b960711b60608201520190565b1561205f57565b60405162461bcd60e51b81528061207860048201612005565b0390fd5b906001600160a01b03808061209084611f42565b169316918383149384156120c3575b5083156120ad575b50505090565b6120b991929350611f65565b16143880806120a7565b909350600052600560205260406000208260005260205260ff60406000205416923861209f565b156120f157565b60405162461bcd60e51b815260206004820152602560248201527f4552433732313a207472616e736665722066726f6d20696e636f72726563742060448201526437bbb732b960d91b6064820152608490fd5b9061216c9161215284611f42565b6001600160a01b03939184169284929091831684146120ea565b1691821561220457816121899161218286611f42565b16146120ea565b7fddf252ad1be2c89b69c2b068fc378daa952ba7f163c4a11628f55a4df523b3ef60008481526004602052604081206001600160601b0360a01b9081815416905583825260036020526040822060001981540190558482526040822060018154019055858252600260205284604083209182541617905580a4565b60405162461bcd60e51b8152602060048201526024808201527f4552433732313a207472616e7366657220746f20746865207a65726f206164646044820152637265737360e01b6064820152608490fd5b9192600092909190803b1561236b576122a3946040518092630a85bd0160e11b9485835233600484015287602484015260448301526080606483015281878160209a8b966084830190611b40565b03926001600160a01b03165af1849181612327575b50612316575050503d60001461230e573d6122d281611be9565b906122e06040519283611bc8565b81528091833d92013e5b8051918261230b5760405162461bcd60e51b81528061207860048201612005565b01fd5b5060606122ea565b6001600160e01b0319161492509050565b9091508581813d8311612364575b61233f8183611bc8565b8101031261236057516001600160e01b0319811681036123605790386122b8565b8480fd5b503d612335565b5050915050600190565b9293600093909291803b156123f5579484916123cf9660405180948193630a85bd0160e11b9788845233600485015260018060a01b0380921660248501526044840152608060648401528260209b8c976084830190611b40565b0393165af18491816123275750612316575050503d60001461230e573d6122d281611be9565b505050915050600190565b1561240757565b60405162461bcd60e51b8152602060048201526014602482015273496e76616c6964207261726974792073636f726560601b6044820152606490fd5b6040519061245082611b91565b816101806000918281528260208201528260408201528260608201528260808201528260a08201528260c08201528260e0820152606061010082015260606101208201526060610140820152826101608201520152565b6008821015610b895752565b6006821015610b895752565b6005821015610b895752565b906006811015610b895761ff0082549160081b169061ff001916179055565b156124f157565b60405162461bcd60e51b815260206004820152601c60248201527f4552433732313a20746f6b656e20616c7265616479206d696e746564000000006044820152606490fd5b1561253d57565b60405162461bcd60e51b8152602060048201526014602482015273151bdad95b88191bd95cc81b9bdd08195e1a5cdd60621b6044820152606490fd5b60001981146125885760010190565b634e487b7160e01b600052601160045260246000fd5b6001600160401b0381116109d35760051b60200190565b6000818152600260205260409020546125d8906001600160a01b03161515611ef6565b6000818152602090600682526040906125f2828220611da6565b6125fa611ce8565b805191821561282c5780516127fb5750505060008481526002602052604090205461262f906001600160a01b03161515611ef6565b612637611ce8565b8051909290156127e65784859083967a184f03e93ff9f4daa797ed6e38ed64bf6a1f01000000000000000090818110156127d7575b50506d04ee2d6d415b85acef8100000000808310156127c9575b50662386f26fc10000808310156127ba575b506305f5e100808310156127ab575b506127108083101561279c575b50606482101561278c575b600a80921015612782575b600190816021818a01996126f56126e08c611be9565b9b6126ed89519d8e611bc8565b808d52611be9565b8b8b019890601f1901368a37508a0101905b61274c575b505050509061274094611c769493925195836127318895518092888089019101611b1d565b84019151809386840190611b1d565b01038084520182611bc8565b600019019083906f181899199a1a9b1b9c1cb0b131b232b360811b8282061a83530491821561277d57919082612707565b61270c565b95600101956126ca565b95906064600291049101956126bf565b600491979204910195386126b4565b600891979204910195386126a7565b60109197920491019538612698565b869197920491019538612686565b9197509150048195388061266c565b925092505051906127f682611bad565b815290565b919550915084612818611c76959451968794868087019101611b1d565b820161274082518093868085019101611b1d565b955050505050509056fea264697066735822122087e7f984ab4909c9ad5c6b19655d3c1b3b7a9ba1d9ac29933deb71190741ee7c64736f6c63430008130033",
  "linkReferences": {},
  "deployedLinkReferences": {}
}